:020000040800F2
:1000000000800120590A0008A90A0008A90A00086E
:10001000A90A0008A90A0008A90A000800000000AF
:10002000000000000000000000000000A90A000815
:10003000A90A000800000000A90A0008E508000855
:1000400000000000A90A0008A90A0008A90A00087F
:10005000A90A0008A90A0008290200084D020008A0
:100060007102000895020008B902000800000000B3
:100070000000000000000000000000000000000080
:100080000000000000000000A90A000800000000B5
:10009000000000000000000000000000DD02000879
:1000A000A90A0008A90A0008A90A0008A90A000864
:1000B00091090008B5090008D9090008A90A000833
:1000C000A90A0008A90A0008A90A0008A90A000844
:1000D000A90A0008A90A0008A90A000800000000EF
:1000E00041030008A90A0008A90A0008000000004E
:1000F0000000000000000000000000000000000000
:1001000000000000A90A0008FD090008A90A00086B
:1001100000000000000000000000000000000000DF
:1001200000000000000000000000000000000000CF
:1001300000000000000000000000000000000000BF
:10014000000000000000000000000000A90A0008F4
:10015000000000000000000000000000A90A0008E4
:10016000A90A0008A90A0008000000000000000019
:10017000000000000000000000000000000000007F
:1001800000000000A90A00080000000000000000B4
:04019000A90A0008B0
:1001940010B5054C237833B9044B13B10448AFF3BD
:1001A40000800123237010BD000000200000000027
:1001B400F40A000808B5034B1BB103490348AFF325
:1001C400008008BD0000000004000020F40A0008BC
:1001D40080B584B000AF786001233B7200237B724A
:1001E4000023BB720023FB727B6818787B685B7802
:1001F40007F10802194600F0D3F800BF1037BD46D6
:1002040080BD80B582B000AF78607B681A787B6867
:100214005B781946104600F089F900BF0837BD46DF
:1002240080BD000080B500AF054B1B689847054BA7
:100234005B69044A43F00103536100BF80BD00BF02
:100244001C000020003C014080B500AF054B5B68FA
:100254009847054B5B69044A43F00203536100BFAE
:1002640080BD00BF1C000020003C014080B500AFF1
:10027400054B9B689847054B5B69044A43F00403AC
:10028400536100BF80BD00BF1C000020003C014042
:1002940080B500AF054BDB689847054B5B69044AA2
:1002A40043F00803536100BF80BD00BF1C00002061
:1002B400003C014080B500AF054B1B699847054BD6
:1002C4005B69044A43F01003536100BF80BD00BF63
:1002D4001C000020003C014080B582B000AF154BEB
:1002E4005B693B600523FB710523FB710AE0FB7925
:1002F4003A6822FA03F303F00103002B06D1FB79D9
:100304000133FB71FB79092BF1D900E000BFFB79C4
:10031400094A52F823309847064B5B69FA79012160
:1003240001FA02F21146034A0B43536100BF083736
:10033400BD4680BD003C01401C00002080B582B059
:1003440000AF154B5B693B600A23FB710A23FB7109
:100354000AE0FB793A6822FA03F303F00103002B65
:1003640006D1FB790133FB71FB790F2BF1D900E046
:1003740000BFFB79094A52F823309847064B5B6962
:10038400FA79012101FA02F21146034A0B4353613F
:1003940000BF0837BD4680BD003C01401C00002062
:1003A40080B485B000AF03463A60FB710B46BB7165
:1003B400FB79072B24D801A252F823F0E1030008AB
:1003C400E7030008ED030008F3030008F90300083D
:1003D4000504000805040008FF0300084D4BFB60FA
:1003E4000FE04D4BFB600CE04C4BFB6009E04C4BC9
:1003F400FB6006E04B4BFB6003E04B4BFB6000E013
:1004040000BFFB681B68BA795200032101FA02F2AB
:10041400D2431A40FB681A60FB681B683A6812787A
:100424001146BA79520001FA02F21A43FB681A60C3
:100434003B681B78012B03D03B681B78022B14D13B
:10044400FB685B68BA79012101FA02F2D2431A40CF
:10045400FB685A60FB685B683A6852781146BA795F
:1004640001FA02F21A43FB685A60FB689B68BA7986
:100474005200032101FA02F2D2431A40FB689A6047
:10048400FB689B683A6892781146BA79520001FA7F
:1004940002F21A43FB689A60FB68DB68BA7952007F
:1004A400032101FA02F2D2431A40FB68DA60FB68C6
:1004B400DB683A68D2781146BA79520001FA02F23E
:1004C4001A43FB68DA603B681B78022B1CD1BB79AA
:1004D400072B0CD8FB681B6A3A6812791146BA7963
:1004E400920001FA02F21A43FB681A620CE0FB68FC
:1004F4005B6A3A6812791146BA79083A920001FAAD
:1005040002F21A43FB685A6200BF1437BD4680BC2E
:10051400704700BF0000024000040240000802408F
:10052400000C024000100240001C024080B485B060
:1005340000AF03460A46FB711346BB71FB79072BD8
:1005440024D801A252F823F06D05000873050008B1
:10055400790500087F050008850500089105000855
:10056400910500088B050008104BFB600FE0104B51
:10057400FB600CE00F4BFB6009E00F4BFB6006E0F7
:100584000E4BFB6003E00E4BFB6000E000BFFB681A
:100594005B69BA79012101FA02F25A40FB685A6197
:1005A40000BF1437BD4680BC704700BF0000024046
:1005B4000004024000080240000C02400010024007
:1005C400001C024080B400AF254B1B68244A43F052
:1005D4000103136000BF224B1B6803F00203002BCE
:1005E400F9D01F4B9B681E4A23F00B0393601C4BEE
:1005F4001B4A9B68936000BF194B9B689B0803F0E0
:100604000B03002BF8D1164B1B68154A43F4002347
:100614001360134B9B68124A23F48A4323F070033C
:1006240093600F4B0E4A9B68936000BF0C4B9B6812
:100634000B4A23F4DE339360094B094A9B689360A9
:1006440000BF074B9B68064A23F45E239360044B68
:10065400034A9B68936000BF00BFBD4680BC7047DF
:100664000038024080B483B000AF0346FB71FB79CD
:10067400202B00F22C8101A252F823F00507000878
:1006840013070008210700082F0700083D0700088A
:100694004B0700085907000867070008750700089A
:1006A40083070008910700089F070008AD070008AA
:1006B400BB070008C9070008D7070008E5070008BA
:1006C400F3070008010800080F0800081D080008C7
:1006D4002B080008390800084708000855080008D6
:1006E40063080008710800087F0800088D080008E6
:1006F4009B080008A9080008B7080008C5080008F6
:10070400764B1B6B754A43F001031363E0E0734BB4
:100714001B6B724A43F002031363D9E06F4B1B6BEC
:100724006E4A43F004031363D2E06C4B1B6B6B4AB9
:1007340043F008031363CBE0684B1B6B674A43F039
:1007440010031363C4E0654B1B6B644A43F08003DE
:100754001363BDE0614B1B6B604A43F48053136326
:10076400B6E05E4B1B6B5D4A43F400131363AFE0CA
:100774005A4B1B6B594A43F480031363A8E0574B4D
:100784005B6B564A43F080035363A1E0534B1B6CED
:10079400524A43F0010313649AE0504B1B6C4F4AD6
:1007A40043F00203136493E04C4B1B6C4B4A43F03D
:1007B400040313648CE0494B1B6C484A43F0080360
:1007C400136485E0454B1B6C444A43F40063136493
:1007D4007EE0424B1B6C414A43F48043136477E050
:1007E4003E4B1B6C3D4A43F40043136470E03B4BA7
:1007F4001B6C3A4A43F40033136469E0374B1B6CB7
:10080400364A43F40013136462E0344B1B6C334ADE
:1008140043F4800313645BE0304B1B6C2F4A43F4B6
:100824000003136454E02D4B1B6C2C4A43F080539B
:1008340013644DE0294B5B6C284A43F00103536475
:1008440046E0264B5B6C254A43F0100353643FE0BB
:10085400224B5B6C214A43F02003536438E01F4B66
:100864005B6C1E4A43F48073536431E01B4B5B6C36
:100874001A4A43F4006353642AE0184B5B6C174A2A
:1008840043F48053536423E0144B5B6C134A43F4E6
:10089400005353641CE0114B5B6C104A43F48043D7
:1008A400536415E00D4B5B6C0C4A43F48033536482
:1008B4000EE00A4B5B6C094A43F40033536407E0CF
:1008C400064B5B6C054A43F48023536400E000BF8D
:1008D40000BF0C37BD4680BC704700BF00380240E3
:1008E40080B500AF024B1B68984700BF80BD00BFB6
:1008F4005C00002080B485B000AF78604FF0804386
:100904001B684FF0804223F0020313604FF08043D2
:100914001B684FF0804203F0100313604FF08043D4
:100924000F229A624FF080434FF47A72DA624FF0EA
:1009340080431B684FF0804243F00103136000239F
:10094400FB6012E000BF4FF080431B6903F001031A
:10095400002BF8D04FF080431B694FF0804223F006
:1009640001031361FB680133FB60FA687B689A42F8
:10097400E8D34FF080431B684FF0804223F001031B
:10098400136000BF1437BD4680BC704780B500AF0C
:10099400064B1B6898474FF080431B694FF0804219
:1009A40023F00103136100BF80BD00BF600000207D
:1009B40080B500AF054B1B689847054B1B69044A7B
:1009C40023F00103136100BF80BD00BF6400002059
:1009D4000004004080B500AF054B1B689847054BE9
:1009E4001B69044A23F00103136100BF80BD00BFEB
:1009F400680000200008004080B500AF054B1B686C
:100A04009847054B1B69044A23F00103136100BF97
:100A140080BD00BF6C000020000C004080B582B097
:100A240000AFFFF7CFFD0020FFF71CFE0A20FFF701
:100A340019FE00233B7101237B713B1D1846FFF710
:100A4400C7FB3B1D1846FFF7DCFB4FF4FA70FFF7BA
:100A540051FFF6E70D488546AFF300800C480D4979
:100A64000D4A002302E0D458C4500433C4188C4205
:100A7400F9D30A4A0A4C002301E013600432A2426B
:100A8400FBD300F011F8FFF7C9FFFEE70080012057
:100A94000000002000000020140B000800000020CB
:100AA40070000020FEE7000070B50D4D0D4C641B76
:100AB400A4100026A64209D10B4D0C4C00F018F8E6
:100AC400641BA4100026A64205D170BD55F8043B52
:100AD40098470136EEE755F8043B98470136F2E7AC
:100AE4000C0B00080C0B00080C0B0008100B000882
:100AF400F8B500BFF8BC08BC9E467047F8B500BF07
:080B0400F8BC08BC9E467047D6
:040B0C00B901000823
:040B10009501000843
:0400000508000A598C
:00000001FF
